{
  "contractName": "RegisterName",
  "abi": [
    {
      "constant": false,
      "inputs": [
        {
          "name": "_name",
          "type": "string"
        }
      ],
      "name": "registerName",
      "outputs": [
        {
          "name": "",
          "type": "bytes32"
        }
      ],
      "payable": false,
      "stateMutability": "nonpayable",
      "type": "function"
    },
    {
      "constant": true,
      "inputs": [
        {
          "name": "",
          "type": "uint256"
        }
      ],
      "name": "names",
      "outputs": [
        {
          "name": "",
          "type": "bytes32"
        }
      ],
      "payable": false,
      "stateMutability": "view",
      "type": "function"
    },
    {
      "constant": true,
      "inputs": [],
      "name": "getNameSize",
      "outputs": [
        {
          "name": "",
          "type": "uint256"
        }
      ],
      "payable": false,
      "stateMutability": "view",
      "type": "function"
    },
    {
      "inputs": [],
      "payable": false,
      "stateMutability": "nonpayable",
      "type": "constructor"
    },
    {
      "anonymous": false,
      "inputs": [
        {
          "indexed": false,
          "name": "_name",
          "type": "string"
        },
        {
          "indexed": false,
          "name": "time",
          "type": "uint256"
        }
      ],
      "name": "LogNameRegistered",
      "type": "event"
    }
  ],
  "bytecode": "0x6060604052341561000f57600080fd5b6103938061001e6000396000f300606060405260043610610057576000357c0100000000000000000000000000000000000000000000000000000000900463ffffffff1680630830602b1461005c5780634622ab03146100d55780636f1210bd14610114575b600080fd5b341561006757600080fd5b6100b7600480803590602001908201803590602001908080601f0160208091040260200160405190810160405280939291908181526020018383808284378201915050505050509190505061013d565b60405180826000191660001916815260200191505060405180910390f35b34156100e057600080fd5b6100f660048080359060200190919050506102e5565b60405180826000191660001916815260200191505060405180910390f35b341561011f57600080fd5b610127610309565b6040518082815260200191505060405180910390f35b600080826040518082805190602001908083835b6020831015156101765780518252602082019150602081019050602083039250610151565b6001836020036101000a03801982511681845116808217855250505050505090500191505060405180910390209050600080826000191660001916815260200190815260200160002060009054906101000a900460ff161515156101d657fe5b600180548060010182816101ea9190610316565b9160005260206000209001600083909190915090600019169055506001600080836000191660001916815260200190815260200160002060006101000a81548160ff0219169083151502179055507fe77e3c5a947ae5ccfe0f8fd21b86a575e5506c1c793bd455d7f9e3e69cfdaea783426040518080602001838152602001828103825284818151815260200191508051906020019080838360005b838110156102a1578082015181840152602081019050610286565b50505050905090810190601f1680156102ce5780820380516001836020036101000a031916815260200191505b50935050505060405180910390a180915050919050565b6001818154811015156102f457fe5b90600052602060002090016000915090505481565b6000600180549050905090565b81548183558181151161033d5781836000526020600020918201910161033c9190610342565b5b505050565b61036491905b80821115610360576000816000905550600101610348565b5090565b905600a165627a7a723058202a53f355b2d8e4be5cd82659d25dc8314a7317d84797d1105aba0467644de42e0029",
  "source": "//defini a versão de compilação do solidty\npragma solidity ^0.4.18;\n\ncontract RegisterName {\n    //variável map onde a chave é uma array de bytes e o valor booleano(true ou false)\n    mapping (bytes32=>bool) mapNames;\n    //array de bytes\n    bytes32[] public names;\n    //evento para ser utilizado como callback pela nossa aplicação web\n    event LogNameRegistered(string _name, uint256 time);\n    //contrutor que utiliza o modificador \n    function RegisterName() public {\n\n    }\n    //função pública que recebe uma string e retorna um tipo bytes32\n    function registerName(string _name) public returns(bytes32) {\n        // keccak256 retorna um hash do parâmetro _name\n        bytes32 nameHash = keccak256(_name);\n        //assert verifica se o nome já existe no map, se existir ele interrompe a execução\n        assert(!mapNames[nameHash]);\n        //adiciona na lista\n        names.push(nameHash);\n        //seta o valor da chave do hash para true\n        mapNames[nameHash] = true;\n        //dispara o evento para ser feito algo na nossa aplicação web ou api, etc.\n        LogNameRegistered(_name, now);\n        // retorna a nome convertido em hash\n        return nameHash;\n    }\n\n    //Retorna o tamanho da lista de nomes\n    function getNameSize() public view returns(uint256) {\n        return names.length;\n    }\n}",
  "sourcePath": "/Users/hgleite/Documents/henrique/GoBlockchain/RegisterName/contracts/register/RegisterName.sol",
  "compiler": {
    "name": "solc",
    "version": "0.4.18+commit.9cf6e910.Emscripten.clang"
  },
  "schemaVersion": "1.0.1",
  "updatedAt": "2018-02-01T15:47:56.541Z"
}